:100000000C945D000C9485000C9485000C94850084
:100010000C9485000C9485000C9485000C9485004C
:100020000C9485000C9485000C9485000C9485003C
:100030000C9485000C9485000C9485000C9485002C
:100040000C94E7020C9485000C94B5020C948F027A
:100050000C9485000C9485000C9485000C9485000C
:100060000C9485000C9485000000000024002700FB
:100070002A0000000000250028002B0004040404CE
:100080000404040402020202020203030303030342
:10009000010204081020408001020408102001021F
:1000A00004081020000000080002010000030407FB
:1000B0000000000000000000820411241FBECFEFEA
:1000C000D8E0DEBFCDBF21E0A6E1B1E001C01D92C6
:1000D000AC3BB207E1F711E0A0E0B1E0E6E3FAE003
:1000E00002C005900D92A631B107D9F710E0CDE519
:1000F000D0E004C02197FE010E941305CC35D10742
:10010000C9F70E9431030C9419050C940000E1EB2F
:10011000F0E02491EDE9F0E09491E9E8F0E0E49179
:10012000EE23C9F0222339F0233001F1A8F4213065
:1001300019F1223029F1F0E0EE0FFF1FEE58FF4FCA
:10014000A591B4912FB7F894EC91811126C09095A8
:100150009E239C932FBF08952730A9F02830C9F023
:10016000243049F7209180002F7D03C0209180002A
:100170002F7720938000DFCF24B52F7724BDDBCFEE
:1001800024B52F7DFBCF2091B0002F772093B000B6
:10019000D2CF2091B0002F7DF9CF9E2BDACFAF9236
:1001A000BF92CF92DF92EF92FF920F931F93CF9364
:1001B000DF936C017B018B01040F151FEB015E01C6
:1001C000AE18BF08C017D10759F06991D601ED915B
:1001D000FC910190F081E02DC6010995892B79F7FA
:1001E000C501DF91CF911F910F91FF90EF90DF90AC
:1001F000CF90BF90AF900895FC01538D448D252F73
:1002000030E0842F90E0821B930B541710F0CF96B0
:10021000089501970895FC01918D828D981761F0E2
:10022000A28DAE0FBF2FB11D5D968C91928D9F5FF9
:100230009F73928F90E008958FEF9FEF0895FC01D8
:10024000918D828D981731F0828DE80FF11D858D8B
:1002500090E008958FEF9FEF08952FB7F894809165
:100260001B0190911C01A0911D01B0911E012FBF97
:100270008093270190932801A0932901B0932A012C
:100280008FE191E00E941F0197FF26C02FB7F894DD
:1002900080911B0190911C01A0911D01B0911E0144
:1002A0002FBF409127015091280160912901709141
:1002B0002A01841B950BA60BB70B4091230150918B
:1002C0002401609125017091260184179507A607E6
:1002D000B707B0F28FEF9FEF0895FC01918D228D4B
:1002E000892F90E0805C9F4F821B91098F73992723
:1002F00008958FE191E00E946D0121E0892B09F4BE
:1003000020E0822F089580E090E0892B29F00E9460
:10031000790181110C9400000895FC01A48DA80FAF
:10032000B92FB11DA35ABF4F2C91848D90E0019637
:100330008F739927848FA689B7892C93A089B18957
:100340008C91837080648C93938D848D981306C0F8
:100350000288F389E02D80818F7D80830895EF925C
:10036000FF920F931F93CF93DF93EC0181E0888F6F
:100370009B8D8C8D98131AC0E889F989808185FF3F
:1003800015C09FB7F894EE89FF896083E889F989E1
:1003900080818370806480839FBF81E090E0DF91E3
:1003A000CF911F910F91FF90EF900895F62E0B8D36
:1003B00010E00F5F1F4F0F731127E02E8C8D8E11F1
:1003C0000CC00FB607FCFACFE889F989808185FF58
:1003D000F5CFCE010E948D01F1CFEB8DEC0FFD2FFB
:1003E000F11DE35AFF4FF0829FB7F8940B8FEA8913
:1003F000FB8980818062CFCFCF93DF93EC01888D22
:100400008823B9F0AA89BB89E889F9898C9185FD8F
:1004100003C0808186FD0DC00FB607FCF7CF8C911D
:1004200085FFF2CF808185FFEDCFCE010E948D0147
:10043000E9CFDF91CF9108953FB7F89480911701EC
:1004400090911801A0911901B0911A0126B5A89BAD
:1004500005C02F3F19F00196A11DB11D3FBFBA2F56
:10046000A92F982F8827BC01CD01620F711D811D16
:10047000911D42E0660F771F881F991F4A95D1F79B
:1004800008958F929F92AF92BF920F931F93CF9335
:10049000DF93CDB7DEB7A1970FB6F894DEBF0FBEDE
:1004A000CDBF19A2423008F44AE08E010F5D1F4F04
:1004B000842E912CB12CA12CA50194010E94DD0465
:1004C000E62FB901CA01EA3044F5E05DD801EE93A8
:1004D0008D01232B242B252B79F790E080E01097BA
:1004E00069F0FD0101900020E9F73197AF014A1B47
:1004F0005B0BBD018FE191E00E94CF00A1960FB68A
:10050000F894DEBF0FBECDBFDF91CF911F910F9149
:10051000BF90AF909F908F900895E95CD7CF1F92C6
:100520000F920FB60F9211242F933F934F935F9327
:100530006F937F938F939F93AF93BF93EF93FF93AB
:100540008FE191E00E948D01FF91EF91BF91AF91FA
:100550009F918F917F916F915F914F913F912F91DB
:100560000F900FBE0F901F9018951F920F920FB60D
:100570000F9211242F938F939F93EF93FF93E0910A
:100580002F01F09130018081E0913501F091360129
:1005900082FD1BC09081809138018F5F8F73209105
:1005A0003901821741F0E0913801F0E0E15EFE4F41
:1005B000958F80933801FF91EF919F918F912F91AB
:1005C0000F900FBE0F901F9018958081F4CF1F924F
:1005D0000F920FB60F9211242F933F938F939F93F7
:1005E000AF93BF9380911B0190911C01A0911D01BD
:1005F000B0911E013091160123E0230F2D3758F5DD
:100600000196A11DB11D2093160180931B019093AB
:100610001C01A0931D01B0931E01809117019091C0
:100620001801A0911901B0911A010196A11DB11DE7
:100630008093170190931801A0931901B0931A01A8
:10064000BF91AF919F918F913F912F910F900FBECE
:100650000F901F90189526E8230F0296A11DB11D3B
:10066000D2CF789484B5826084BD84B5816084BD26
:1006700085B5826085BD85B5816085BD80916E0040
:10068000816080936E001092810080918100826071
:1006900080938100809181008160809381008091AE
:1006A00080008160809380008091B100846080939D
:1006B000B1008091B00081608093B00080917A0099
:1006C000846080937A0080917A00826080937A00BF
:1006D00080917A00816080937A0080917A008068AE
:1006E00080937A001092C100E0912F01F0913001C7
:1006F00082E08083E0912B01F0912C011082E09147
:100700002D01F0912E018FEC808310923701E09142
:100710003301F091340186E08083E0913101F09162
:100720003201808180618083E0913101F09132015A
:10073000808188608083E0913101F0913201808175
:1007400080688083E0913101F091320180818F7D5A
:100750008083EDE9F0E02491E9E8F0E084918823DA
:1007600099F090E0880F991FFC01E859FF4FA5917F
:10077000B491FC01EE58FF4F859194918FB7F89496
:10078000EC91E22BEC938FBF0AE010E0C0E0D0E0E8
:100790008FE191E00E946D01181619060CF099C0C6
:1007A0008FE191E00E940B01813409F092C00E9418
:1007B0001C024B015C018AE0C82ED12CE12CF12CEB
:1007C0000E941C02681979098A099B09683E7340D6
:1007D00081059105A8F321E0C21AD108E108F108CA
:1007E00088EE880E83E0981EA11CB11CC114D104B0
:1007F000E104F10429F70E942D01FC0197FD7CC062
:100800008D32910521F0C0970A9708F06DC0C12C78
:10081000D12C7601B12CE130F105D9F0ED32F105A2
:1008200009F467C0CF01C0970A9798F4AAE0B0E036
:10083000A70196010E94AF046F01FF0FEE08FF08A9
:10084000C60ED71EE81EF91E80E3C81AD108E108BB
:10085000F1088FE191E00E940B010E942D01FC0143
:10086000C0970A97C0F2E130F105A9F2BB2041F030
:10087000F094E094D094C094C11CD11CE11CF11CF4
:10088000C601B8010E94C904892BD1F50D2C000CBA
:10089000EE08FF084AE0C701B601F7FE0DC06DE2A1
:1008A0008FE191E00E94AF0166277727CB016C1999
:1008B0007D098E099F094AE00E94410242E050E012
:1008C00062E171E08FE191E00E94CF0081E00E943F
:1008D0008700209709F45CCF0E947901882309F4EE
:1008E00057CF0E94000054CF8FE191E00E940B018E
:1008F00082CFBB24B394ADCFC12CD12C7601C0CF15
:1009000080E0E5CFEFE1F1E01382128288EE93E020
:10091000A0E0B0E084839583A683B78384E091E070
:100920009183808385EC90E09587848784EC90E0C8
:100930009787868780EC90E0918B808B81EC90E0AC
:10094000938B828B82EC90E0958B848B86EC90E08D
:10095000978B868B118E128E138E148E08950E94A3
:10096000BA04A59F900DB49F900DA49F800D911D7A
:1009700011240895A29FB001B39FC001A39F700DE1
:10098000811D1124911DB29F700D811D1124911D97
:10099000089597FB072E16F4009407D077FD09D031
:1009A0000E94FF0407FC05D03EF4909581959F4F6F
:1009B0000895709561957F4F0895A1E21A2EAA1BA4
:1009C000BB1BFD010DC0AA1FBB1FEE1FFF1FA217FF
:1009D000B307E407F50720F0A21BB30BE40BF50BFC
:1009E000661F771F881F991F1A9469F76095709585
:1009F000809590959B01AC01BD01CF010895AA1B84
:100A0000BB1B51E107C0AA1FBB1FA617B70710F0F9
:100A1000A61BB70B881F991F5A95A9F7809590952B
:100A2000BC01CD010895EE0FFF1F0590F491E02D5C
:060A30000994F894FFCFC9
:100A360000000000AF01CF00FC00FC016D010B01BE
:060A46001F010D0A000073
:00000001FF
